{
  "contractName": "Fuchswert",
  "abi": [
    {
      "constant": true,
      "inputs": [],
      "name": "fuchswertProzent",
      "outputs": [
        {
          "internalType": "uint256",
          "name": "",
          "type": "uint256"
        }
      ],
      "payable": false,
      "stateMutability": "view",
      "type": "function"
    },
    {
      "constant": true,
      "inputs": [],
      "name": "letzterName",
      "outputs": [
        {
          "internalType": "string",
          "name": "",
          "type": "string"
        }
      ],
      "payable": false,
      "stateMutability": "view",
      "type": "function"
    },
    {
      "constant": false,
      "inputs": [
        {
          "internalType": "string",
          "name": "name",
          "type": "string"
        }
      ],
      "name": "fuchswert",
      "outputs": [
        {
          "internalType": "uint256",
          "name": "",
          "type": "uint256"
        }
      ],
      "payable": false,
      "stateMutability": "nonpayable",
      "type": "function"
    }
  ],
  "bytecode": "0x608060405234801561001057600080fd5b50610862806100206000396000f3fe608060405234801561001057600080fd5b50600436106100415760003560e01c806336c06c1614610046578063cd6ec1d414610064578063eb43019d14610133575b600080fd5b61004e6101b6565b6040518082815260200191505060405180910390f35b61011d6004803603602081101561007a57600080fd5b810190808035906020019064010000000081111561009757600080fd5b8201836020820111156100a957600080fd5b803590602001918460018302840111640100000000831117156100cb57600080fd5b91908080601f016020809104026020016040519081016040528093929190818152602001838380828437600081840152601f19601f8201169050808301925050505050505091929192905050506101bc565b6040518082815260200191505060405180910390f35b61013b6104ba565b6040518080602001828103825283818151815260200191508051906020019080838360005b8381101561017b578082015181840152602081019050610160565b50505050905090810190601f1680156101a85780820380516001836020036101000a031916815260200191505b509250505060405180910390f35b60015481565b600081600090805190602001906101d4929190610788565b5060006101e083610558565b14156101f35760006001819055506104b0565b60006102346040518060400160405280600181526020017f6600000000000000000000000000000000000000000000000000000000000000815250846106ce565b810190506102776040518060400160405280600181526020017f4600000000000000000000000000000000000000000000000000000000000000815250846106ce565b810190506102ba6040518060400160405280600181526020017f7500000000000000000000000000000000000000000000000000000000000000815250846106ce565b810190506102fd6040518060400160405280600181526020017f5500000000000000000000000000000000000000000000000000000000000000815250846106ce565b810190506103406040518060400160405280600181526020017f6300000000000000000000000000000000000000000000000000000000000000815250846106ce565b810190506103836040518060400160405280600181526020017f4300000000000000000000000000000000000000000000000000000000000000815250846106ce565b810190506103c66040518060400160405280600181526020017f6800000000000000000000000000000000000000000000000000000000000000815250846106ce565b810190506104096040518060400160405280600181526020017f4800000000000000000000000000000000000000000000000000000000000000815250846106ce565b8101905061044c6040518060400160405280600181526020017f7300000000000000000000000000000000000000000000000000000000000000815250846106ce565b8101905061048f6040518060400160405280600181526020017f5300000000000000000000000000000000000000000000000000000000000000815250846106ce565b8101905061049c83610558565b60648202816104a757fe5b04600181905550505b6001549050919050565b60008054600181600116156101000203166002900480601f0160208091040260200160405190810160405280929190818152602001828054600181600116156101000203166002900480156105505780601f1061052557610100808354040283529160200191610550565b820191906000526020600020905b81548152906001019060200180831161053357829003601f168201915b505050505081565b6000806000809050600084519050600092505b808210156106c357600085838151811061058157fe5b602001015160f81c60f81b9050608060f81b817effffffffffffffffffffffffffffffffffffffffffffffffffffffffffffff191610156105c7576001830192506106b5565b60e060f81b817effffffffffffffffffffffffffffffffffffffffffffffffffffffffffffff19161015610600576002830192506106b4565b60f060f81b817effffffffffffffffffffffffffffffffffffffffffffffffffffffffffffff19161015610639576003830192506106b3565b60f8801b817effffffffffffffffffffffffffffffffffffffffffffffffffffffffffffff19161015610671576004830192506106b2565b60fc60f81b817effffffffffffffffffffffffffffffffffffffffffffffffffffffffffffff191610156106aa576005830192506106b1565b6006830192505b5b5b5b5b50828060010193505061056b565b829350505050919050565b600060608390506060839050600080905060008090505b825181101561077b578281815181106106fa57fe5b602001015160f81c60f81b7effffffffffffffffffffffffffffffffffffffffffffffffffffffffffffff19168460008151811061073457fe5b602001015160f81c60f81b7effffffffffffffffffffffffffffffffffffffffffffffffffffffffffffff1916141561076e576001820191505b80806001019150506106e5565b5080935050505092915050565b828054600181600116156101000203166002900490600052602060002090601f016020900481019282601f106107c957805160ff19168380011785556107f7565b828001600101855582156107f7579182015b828111156107f65782518255916020019190600101906107db565b5b5090506108049190610808565b5090565b61082a91905b8082111561082657600081600090555060010161080e565b5090565b9056fea265627a7a72315820d87c2b0c74956f61df39b6680413982d6dea7b7a66e807cc103374b9026a96a764736f6c63430005100032",
  "source": "// SPDX-License-Identifier: MIT\npragma solidity >=0.4.25 <0.6.0;\n\ncontract Fuchswert {\n\n    string public letzterName;\n    uint256 public fuchswertProzent;\n\n    function fuchswert(string memory name) public returns (uint256) {\n        letzterName = name;\n        if (strlen(name) == 0) {\n            fuchswertProzent = 0;\n        } else {\n            uint256 anzahlDerFuchsBuchstaben;\n\n            anzahlDerFuchsBuchstaben += zaehleBuchstaben(\"f\", name);\n            anzahlDerFuchsBuchstaben += zaehleBuchstaben(\"F\", name);\n            anzahlDerFuchsBuchstaben += zaehleBuchstaben(\"u\", name);\n            anzahlDerFuchsBuchstaben += zaehleBuchstaben(\"U\", name);\n            anzahlDerFuchsBuchstaben += zaehleBuchstaben(\"c\", name);\n            anzahlDerFuchsBuchstaben += zaehleBuchstaben(\"C\", name);\n            anzahlDerFuchsBuchstaben += zaehleBuchstaben(\"h\", name);\n            anzahlDerFuchsBuchstaben += zaehleBuchstaben(\"H\", name);\n            anzahlDerFuchsBuchstaben += zaehleBuchstaben(\"s\", name);\n            anzahlDerFuchsBuchstaben += zaehleBuchstaben(\"S\", name);\n\n            fuchswertProzent = (anzahlDerFuchsBuchstaben * 100) / strlen(name);\n        }\n        return fuchswertProzent;\n    }\n\n    function zaehleBuchstaben(string memory letter, string memory name)\n        private\n        pure\n        returns (uint256)\n    {\n        bytes memory letterBytes = bytes(letter);\n        bytes memory nameBytes = bytes(name);\n\n        uint256 anzahl = 0;\n        for (uint256 i = 0; i < nameBytes.length; i++) {\n            if (letterBytes[0] == nameBytes[i]) {\n                anzahl += 1;\n            }\n        }\n        return anzahl;\n    }\n\n    // see https://github.com/ensdomains/ens-contracts/blob/d9e260dcb87843c6b0161be019aeb55e2da6ef5d/contracts/ethregistrar/StringUtils.sol\n    /**\n     * @dev Returns the length of a given string\n     *\n     * @param s The string to measure the length of\n     * @return The length of the input string\n     */\n    function strlen(string memory s) internal pure returns (uint256) {\n        uint256 len;\n        uint256 i = 0;\n        uint256 bytelength = bytes(s).length;\n        for (len = 0; i < bytelength; len++) {\n            bytes1 b = bytes(s)[i];\n            if (b < 0x80) {\n                i += 1;\n            } else if (b < 0xE0) {\n                i += 2;\n            } else if (b < 0xF0) {\n                i += 3;\n            } else if (b < 0xF8) {\n                i += 4;\n            } else if (b < 0xFC) {\n                i += 5;\n            } else {\n                i += 6;\n            }\n        }\n        return len;\n    }\n}\n",
  "sourcePath": "C:\\Users\\ThinkPad\\git\\fuchswert\\contracts\\Fuchswert.sol",
  "compiler": {
    "name": "solc",
    "version": "0.5.16+commit.9c3226ce.Emscripten.clang"
  },
  "schemaVersion": "3.4.10",
  "updatedAt": "2022-10-04T11:39:14.625Z",
  "networkType": "ethereum",
  "devdoc": {
    "methods": {}
  },
  "userdoc": {
    "methods": {}
  }
}